:100000000202022000FDD2008F992202028E12000D
:1000100026FF600C120003740129F9E43AFA80EE1D
:0100200022BD
:100023000203FFBB010689828A83E0225002E72292
:10003300BBFE02E32289828A83E49322F8BB010D8B
:10004300E58229F582E5833AF583E8F0225006E953
:100053002582C8F622BBFE05E92582C8F2228A83DF
:100063008982E473E3F5F009E208B5F06D606B8013
:10007300F3E3F5F009E608B5F060605E80F387F01E
:1000830009E608B5F054605280F487F009E208B538
:10009300F048604680F488828C8387F009E0A3B53A
:1000A300F038603680F488828C8387F009E493A368
:1000B300B5F027602580F388828C83E3F5F009E0AF
:1000C300A3B5F016601480F388828C83E3F5F009FE
:1000D300E493A3B5F004600280F20201928085806C
:1000E300E7808E80D2803C8015806C807E809B80F0
:1000F300B5808B80A1804F8070803A02019E8982F7
:100103008A83ECFAE493F5F0A3C8C582C8CCC5830F
:10011300CCE493A3C8C582C8CCC583CCB5F07060CA
:100123006E80E189828A83E493F5F0A3E208B5F057
:100133005E605C80F289828A83E0F5F0A3E608B50D
:10014300F04D604B80F389828A83E0F5F0A3E208E7
:10015300B5F03C603A80F389828A83E493F5F0A397
:10016300E608B5F02A602880F2805389828A83ECFE
:10017300FAE493F5F0A3C8C582C8CCC583CCE0A349
:10018300C8C582C8CCC583CCB5F004600280E27FC9
:10019300FFB5F0020F2240027F012289828A83EC9D
:1001A300FAE0F5F0A3C8C582C8CCC583CCE0A3C8E8
:1001B300C582C8CCC583CCB5F0D560D380E3898232
:1001C3008A83ECFAE0F5F0A3C8C582C8CCC583CC1A
:1001D300E493A3C8C582C8CCC583CCB5F0B160AFE6
:1001E30080E288F0ED2402B4040050A3F582EB24EE
:1001F30002B40400509923234582239000E07378CE
:100203007FE4F6D8FD75813E020249020362E4935E
:10021300A3F8E493A34003F68001F208DFF48029F6
:10022300E493A3F85407240CC8C333C4540F4420E5
:10023300C8834004F456800146F6DFE4800B0102D4
:10024300040810204080900491E47E019360BCA3D5
:10025300FF543F30E509541FFEE493A360010ECF22
:1002630054C025E060A840B8E493A3FAE493A3F84C
:10027300E493A3C8C582C8CAC583CAF0A3C8C5820C
:10028300C8CAC583CADFE9DEE780BEC0E0C0F0C0EC
:1002930083C082C0D075D000C000C001C002C003BB
:1002A300C004C005C006C007758A66758CFC750856
:1002B30000E50875F003A42433F8860308E6FA087A
:1002C300E64A4B6012E50875F003A42433F808E608
:1002D300FA08E6F91200610508E508C3940440D161
:1002E300D007D006D005D004D003D002D001D0006F
:1002F300D0D0D082D083D0F0D0E0328B198A1A8943
:100303001BE4FFEF75F003A42433F8860308E6FA31
:1003130008E6F9E519851A83851B826B7008E96580
:10032300827003EA65837002D3220FBF04D5E4FF12
:10033300EF75F003A42433F8860308E6FA08E64AC7
:100343004B7016AA1AA91BEF75F003A42433F8A661
:100353001908A60208A601D3220FBF04D3C3221291
:10036300045612042C7B007A0079091203BA50F563
:1003730078097C007D007BFF7A04799C1201E5EF0C
:10038300700AF5807BFF7A04799F801B78097C00D3
:100393007D007BFF7A0479AC1201E5EF700E758066
:1003A300FF7BFF7A0479B012000E80B97BFF7A04D9
:1003B30079BE12000E80AE8B198A1A891B30013A5E
:1003C300E4F51CE51CC3953250197422251CF8E68C
:1003D300AB19AA1AA91B851C8275830012003F055D
:1003E3001C80E0AB19AA1AA91B851C82758300E443
:1003F30012003FC201E4F532D322C322C0E0C0D0D1
:1004030075D000C000C00730980FAF320532742298
:100413002FF8A699752100C298309904C200C29999
:10042300D007D000D0D0D0E032C29FD29E53877F76
:1004330053890F438920758BFD758DFDD28ED29C18
:10044300C29DD2AFD2ACC298C2997BFF7A04797FA6
:100453000202FED2AFD2A95389F0438901758A669D
:10046300758CFCD28CE4FFEF75F003A42433F8768B
:10047300000876000876000FBF04EC220521E53260
:10048300D394004008E521940A4002D20122C1001E
:10049300012100013200C101006F6E004F4B3A4C45
:1004A3004544206973206F6E006F6666004F4B3AB8
:1004B3004C4544206973206F6666004572726F7203
:0904C30020636F6D6D616E640031
:00000001FF
