:10000000020E4F020EDB309902C299309802C2985C
:0100100032BD
:10001300020F9643BA8043B22053B1DF22C2B52206
:100023000200068F228B238A248925785E7C007D3B
:10003300007BFF7A1979FB7E007F111204C2786F6F
:100043007C007D007BFF7A1A790C7E007F0A120404
:10005300C220090302015DE52214602114604C14DF
:1000630060761470030200FC14700302012F240550
:10007300600302015BAB23AA24A9258028AB23AA32
:1000830024A9259000027401120550900002120564
:1000930001640D600302015BAB23AA24A925900030
:1000A3000204120595900001020156AB23AA24A96C
:1000B300259000037401120550900003120501649A
:1000C30020600302015BAB23AA24A925900003044B
:1000D300120595900002807BAB23AA24A925740105
:1000E30012052E1204E86408706E04120583AB2314
:1000F300AA24A925900003805CAB23AA24A92590F8
:100103000004740112055090000412050164187074
:1001130047AB23AA24A92590000412059590000358
:100123007401120550740112052E802CAB23AA24EE
:10013300A9259000057401120550900005120501D0
:10014300B43C15AB23AA24A925900005E412059518
:100153009000047401120550C209AB23AA24A925F7
:10016300120B0BE52214607614700302023F147025
:100173000302029B14700302033A147003020396F2
:10018300240560030203F17529FF752A19752BE411
:10019300AB23AA24A925900001120501752C00F5B3
:1001A3002D7B007A00795E12080BE4785DF67BFF05
:1001B3007A1979EBE4FDFF120DC07F327E00121233
:1001C3004D7B007A00795EE4FDFF120DC07F327E25
:1001D3000012124D785D06E6C3940440D1227529BE
:1001E300FF752A19752BF0AB23AA24A925900002C9
:1001F300120501752C00F52D7B007A00795E12083B
:100203000BE47860F6785DF67BFF7A1979F5E4FD07
:100213007F07120DC07F327E0012124D7B007A00E1
:10022300795EE4FD7F07120DC07F327E0012124D0E
:10023300785D06E6C3940440CF0203F17529FF7588
:100243002A19752BF0AB23AA24A9259000031205C4
:1002530001752C00F52D7B007A00795E12080BE402
:100263007860F6785DF67BFF7A1979F5E4FD7F0C0B
:10027300120DC07F327E0012124D7B007A00795E30
:10028300E4FD7F0C120DC07F327E0012124D785DAB
:1002930006E6C3940440CF227E007F0A7D007B00E4
:1002A3007A00796F12067F7529FF752A19752BF865
:1002B300AB23AA24A9251204E875F003A4243EF86D
:1002C300860308E6FA08E68B2C8A2DF52E7B007A46
:1002D30000795E12080BE4785DF67B007A00795EA4
:1002E300121376785DE6FDC39FE49E500B746F2D69
:1002F300F87623785D0680E2785DE6246FF8E4F60D
:10030300785DF67B007A00796F7D01E4FF120DC002
:100313007F327E0012124D7B007A00795E7D01E40C
:10032300FF120DC07F327E0012124D785D06E6C3C8
:10033300940440CF0203F17529FF752A19752BF038
:10034300AB23AA24A925900004120501752C00F5FE
:100353002D7B007A00795E12080BE47860F6785DF5
:10036300F67BFF7A1979F57D02E4FF120DC07F3227
:100373007E0012124D7B007A00795E7D02E4FF124B
:100383000DC07F327E0012124D785D06E6C39404E1
:1003930040CF227529FF752A19752BF0AB23AA24A8
:1003A300A925900005120501752C00F52D7B007A17
:1003B30000795E12080BE47860F6785DF67BFF7ACD
:1003C3001979F57D027F03120DC07F327E00121270
:1003D3004D7B007A00795E7D027F03120DC07F3270
:1003E3007E0012124D785D06E6C3940440CF22E7E7
:1003F30009F608DFFA8046E709F208DFFA803E884B
:10040300828C83E709F0A3DFFA8032E309F608DF81
:10041300FA8078E309F208DFFA807088828C83E33C
:1004230009F0A3DFFA806489828A83E0A3F608DFF8
:10043300FA805889828A83E0A3F208DFFA804C802D
:10044300D280FA80C680D4806980F28033801080A5
:10045300A680EA809A80A880DA80E280CA80338905
:10046300828A83ECFAE493A3C8C582C8CCC583CC43
:10047300F0A3C8C582C8CCC583CCDFE9DEE7800D15
:1004830089828A83E493A3F608DFF9ECFAA9F0EDF5
:10049300FB2289828A83ECFAE0A3C8C582C8CCC553
:1004A30083CCF0A3C8C582C8CCC583CCDFEADEE821
:1004B30080DB89828A83E493A3F208DFF980CC8806
:1004C300F0EF60010E4E60C388F0ED2402B4040027
:1004D30050B9F582EB2402B4040050AF23234582C4
:1004E3002390044273BB010689828A83E02250026F
:1004F300E722BBFE02E32289828A83E49322BB01C3
:100503000CE58229F582E5833AF583E0225006E97A
:100513002582F8E622BBFE06E92582F8E222E5827F
:1005230029F582E5833AF583E49322BB01098982A5
:100533008A83F8E028F022500327F722BBFE05F850
:10054300E328F3228A838982F8E4932822BB010FEC
:10055300F8E58229F582E5833AF583E028F0225015
:1005630009C58229F8E58226F622BBFE09C5822940
:10057300F8E22582F222F8EA2583F583E99328221B
:10058300BB010689828A83F0225002F722BBFE0157
:10059300F322F8BB010DE58229F582E5833AF58361
:1005A300E8F0225006E92582C8F622BBFE05E925BC
:1005B30082C8F222BC000BBE0029EF8DF084FFAD90
:1005C300F022E4CCF875F008EF2FFFEE33FEEC33A6
:1005D300FCEE9DEC984005FCEE9DFE0FD5F0E9E4A2
:1005E300CEFD22EDF8F5F0EE8420D21CFEADF075C1
:1005F300F008EF2FFFED33FD4007985006D5F0F2DA
:1006030022C398FD0FD5F0EA22E88FF0A4CC8BF03B
:10061300A42CFCE98EF0A42CFC8AF0EDA42CFCEABB
:100623008EF0A4CDA8F08BF0A42DCC3825F0FDE9F5
:100633008FF0A42CCD35F0FCEB8EF0A4FEA9F0EBEB
:100643008FF0A4CFC5F02ECD39FEE43CFCEAA42DF7
:10065300CE35F0FDE43CFC22C3E49FFFE49EFEE4C0
:100663009DFDE49CFC22EB9FF5F0EA9E42F0E99DA0
:1006730042F0EC6480C864809845F022EF4E60122B
:10068300EF60010EEDBB010B89828A83F0A3DFFCCF
:10069300DEFA2289F05007F709DFFCA9F022BBFE3E
:1006A300FCF309DFFCA9F02275F008758200EF2F37
:1006B300FFEE33FECD33CDCC33CCC58233C5829B25
:1006C300ED9AEC99E58298400CF582EE9BFEED9A4B
:1006D300FDEC99FC0FD5F0D6E4CEFBE4CDFAE4CCE7
:1006E300F9A88222B800C1B90059BA002DEC8BF0E9
:1006F30084CFCECDFCE5F0CBF97818EF2FFFEE33A6
:10070300FEED33FDEC33FCEB33FB10D703994004D0
:10071300EB99FB0FD8E5E4F9FA227818EF2FFFEEF7
:1007230033FEED33FDEC33FCC933C910D7059BE928
:100733009A4007EC9BFCE99AF90FD8E0E4C9FAE484
:10074300CCFB2275F010EF2FFFEE33FEED33FDCC23
:1007530033CCC833C810D7079BEC9AE899400AED0D
:100763009BFDEC9AFCE899F80FD5F0DAE4CDFBE4B5
:10077300CCFAE4C8F922FAE6FB0808E6F925F0F614
:1007830018E6CA3AF622D083D082F8E49370127442
:100793000193700DA3A393F8740193F5828883E406
:1007A300737402936860EFA3A3A380DFE535242964
:1007B300F8E605352278263007027829E475F0013A
:1007C3001207790204E82000EB7F2ED2008018EF95
:1007D300540F2490D43440D4FF30040BEF24BFB41F
:1007E3001A0050032461FFE536600215360539E52A
:1007F300397002053830070D7826E475F0011207C9
:1008030079EF0205830212747403D2078003E4C2F2
:1008130007F5358B268A278928E4F536F538F53927
:10082300E53660077F201207EA80F57537FFC201BE
:10083300C200C202C203C205C206C2081207B8FF41
:10084300700D3007057F001207FBAF39AE3822B4B5
:10085300255FC2D5C2041207B8FF24D0B40A0050E2
:100863001A75F00A783630D50508B6FF0106C6A416
:1008730026F620D5047002D20380D924CFB41A00FF
:10088300EF5004C2E5D2040209FBD20180C6D200B4
:1008930080C0D20280BCD2D580BAD20580B47F207A
:1008A3001207EA2002077401B5360040F11207AFC0
:1008B300FF1207EA020823D208D20680951207AF77
:1008C300FB1207AFFA1207AFF94A4B700679CC7ADD
:1008D3000A7BFF20022EE536602A7E008E82758316
:1008E3000012050160060EEE653770F0C2D5EBC04D
:1008F300E0EAC0E0E9C0E0EE120A42D0E0F9D0E05D
:10090300FAD0E0FB1204E8FF60AAEBC0E0EAC0E023
:10091300E9C0E01207EAD0E02401F9D0E03400FA9C
:10092300D0E0FBE5370460DCD537D980877BFF7ADD
:100933000A793ED202809C791080027908C206C2ED
:10094300088008D2D5790A8004790AC2D5E537042C
:100953007002F537E4FAFDFEFF1207AFFC7B0820B7
:1009630001131207AFFD7B1030000A1207AFFE120E
:1009730007AFFF7B20EC3382D592D55013C3E4300D
:1009830000069FFFE49EFEE42001039DFDE49CFC22
:10099300E4CBF8C201EC700CCFCECDCCE824F8F850
:1009A30070F38017C3EF33FFEE33FEED33FDEC330B
:1009B300FCEB33FB994002FB0FD8E9EB300105F860
:1009C300D0E0C448B201C0E00AEC4D4E4F78207B22
:1009D3000070C2EAB5370040BCC0E0120A44D0F050
:1009E300D0E0200104C4C0E0C4B201C0F01207D3B8
:1009F300D0F0D5F0EB02082312078908C053093A57
:100A03005808914C088D42093E4F0946440946490E
:100A130008A643094C550930460930450930470AB1
:100A2300EC5008952D08992E08BC2B089D2308BA75
:100A3300200AD52A085548000008B43F3F3F0079F3
:100A43000AA2D5200314300509B910020404B90819
:100A53000104A2D52006025001042002689202B5C7
:100A630036005034C0E07F203003197F30A2027279
:100A7300067205500F120A9BC202C206C205C208C3
:100A83007F30800F300503E9C0E01207EA30050329
:100A9300D0E0F9D0E0B536CC3005177F30B9100C73
:100AA3001207EA7F583004077F788003B9080312DE
:100AB30007EA3002057F2D0207EA7F202008F87F2E
:100AC3002B2006F322920280CF286E756C6C2900CE
:100AD300D2011207AF3001F8C201783630D50108D0
:100AE300F60208552D504349581207AF2403B405A5
:100AF300004001E4900AE7931207DB743A1207DB24
:100B0300D20375360402093A8B268A278928E4FD25
:100B13007F8E1211FA7F0A7E0012135DAB26AA277D
:100B2300A928900006120501FF75F00A84C454F049
:100B3300FEEF75F00A84E5F04EFD53057F7F8012CA
:100B430011FAAB26AA27A928900005120501FF7503
:100B5300F00A84C454F0FEEF7F821211F2AB26AA8E
:100B630027A928900004120501FF75F00A84C454D4
:100B7300F0FEEF75F00A84E5F04EFD53053F7F84E8
:100B83001211FAAB26AA27A928900003120501FF28
:100B930075F00A84C454F0FEEF7F861211F2AB267F
:100BA300AA27A928900002120501FF75F00A84C440
:100BB30054F0FEEF75F00A84E5F04EFD7F881211C4
:100BC300FAAB26AA27A928900001120501FF75F0A8
:100BD3000A84C454F0FEEF75F00A84E5F04EFD7FFD
:100BE3008C1211FAAB26AA27A9281204E875F00A79
:100BF30084ADF07F8A1211FA7D807F8E1211FA7F05
:100C03000A7E0002135D75571A75580375591275DC
:100C13005603755A16755B28E4F55C12114F1200E2
:100C230016120F4412139F7B007A007956120B0B96
:100C3300120020120FE77B007A007956120CF53070
:100C43000A107B007A007956AF40120026C20A02CE
:100C53000CEB7529FF752A1A752B16752C00855711
:100C63002D752E0085582F7530008559317B017AFB
:100C730000790012080B7B017A007900E4FDFF1272
:100C83000DC07529FF752A1A752B2BE55675F003D0
:100C9300A4243EF8860308E6FA08E68B2C8A2DF591
:100CA3002E7B017A00790012080B7B017A00790010
:100CB3007D01E4FF120DC07529FF752A1A752B2ECD
:100CC300752C00855A2D752E00855B2F7530008598
:100CD3005C317B017A00790012080B7B017A007981
:100CE300007D02E4FF120DC07F327E0012124D021E
:100CF3000C398B228A2389247F801211C0EFC454BC
:100D03000F75F00AA4FEEF540F2EAB22AA23A924D9
:100D13009000061205957F821211C0EFC4540F751F
:100D2300F00AA4FEEF540F2EAB22AA23A9249000AD
:100D3300051205957F841211C0EFC4540F75F00A94
:100D4300A4FEEF540F2EAB22AA23A9249000041271
:100D530005957F861211C0EFC4540F75F00AA4FEE7
:100D6300EF540F2EAB22AA23A9249000031205955A
:100D73007F881211C0EFC4540F75F00AA4FEEF541C
:100D83000F2EAB22AA23A9249000021205957F8C73
:100D93001211C0EFC4540F75F00AA4FEEF540F2EC6
:100DA300AB22AA23A9249000011205957F8A121170
:100DB300C0EF5407AB22AA23A9240205838F268DF3
:100DC300278B288A29892A752C20752D027B007A86
:100DD30000792C7D021210C7E52725E012129BE44F
:100DE300F52BAB28AA29A92A852B82758300120526
:100DF30001FF601DC374109526FEE52BC39E5011A1
:100E0300EF75F010A424BBF9741112107E052B802A
:100E1300D1E52725E00412129BE4F52BAB28AA2980
:100E2300A92A852B82758300120501FF601DC374F7
:100E3300109526FEE52BC39E5011EF75F010A424E8
:100E4300C3F9741112107E052B80D122787FE4F64A
:100E5300D8FD758178020E96020C09E493A3F8E499
:100E630093A34003F68001F208DFF48029E493A3FF
:100E7300F85407240CC8C333C4540F4420C8834018
:100E830004F456800146F6DFE4800B0102040810E7
:100E93002040809012E4E47E019360BCA3FF543FA2
:100EA30030E509541FFEE493A360010ECF54C0251F
:100EB300E060A840B8E493A3FAE493A3F8E493A30F
:100EC300C8C582C8CAC583CAF0A3C8C582C8CAC573
:100ED30083CADFE9DEE780BEC0E0C0F0C083C08222
:100EE300C0D075D000C000C001C002C003C004C0A0
:100EF30005C006C0077F0A7E0012124D20B22030C3
:100F0300B2FD121305200B04D20B8011E54024011E
:100F1300FFE433FE7C007D061205B78D40D20A90B4
:100F2300FD13E054FBF0D007D006D005D004D00366
:100F3300D002D001D000D0D0D082D083D0F0D0E086
:100F43003212138B7522AE7523D57524807525A8AF
:100F530075263F7527D3E4F528752940752AA175B1
:100F63002BC8752CDA752D12752E81752FCF753020
:100F7300D97531F17532DB7533407534A47535A6F7
:100F830075368D7537147538AFFB7A0079227D1766
:100F93000210C7C0E0C0F0C083C082C0D075D000CB
:100FA300C000C001C002C003C004C005C006C00722
:100FB3007F0A7E0012124D20B30830B3FD121305D1
:100FC300D20990FD13E054F7F0D007D006D005D036
:100FD30004D003D002D001D000D0D0D082D083D0AF
:100FE300F0D0E032D297D2967F0A7E0012124D756E
:100FF3002420E4F525FB7A0079247D021210C71220
:1010030013237F781210341212C07F40121034124F
:1010130012C0E4F522F523E4FF1210341212C005C6
:1010230023E52370020522C3E522940440E9021359
:10103300408F3EE4F53FC2977F057E0012135DC3E8
:101043007407953FFFF8E53E088002C313D8FC13ED
:1010530092967F057E0012135DD2977F057E001264
:10106300135DC2977F057E0012135D053FE53FC305
:10107300940840C27F0A7E0002135D35F0FA7BFFBD
:101083007D088B2E8A2F89308D311213237F78129E
:1010930010341212C07F401210341212C0E4F53221
:1010A300E532C39531501AAB2EAA2FA9308532826F
:1010B300758300120501FF1210341212C00532802D
:1010C300DF0213408B398A3A893B8D3C1213237F0D
:1010D300781210341212C09200E4FF12103412126C
:1010E300C0E4F53DE53DC3953C501AAB39AA3AA996
:1010F3003B853D82758300120501FF1210341212E5
:10110300C0053D80DF021340C2D5E830E70FB2D5FA
:10111300E4C39BFBE49AFAE499F9E498F8EC30E72A
:1011230017B2D51211411206E7E4C39BFBE49AFA06
:10113300E499F9E498F880031206E730D50DE4C387
:101143009FFFE49EFEE49DFDE49CFC2243BA8043A2
:10115300FF5053FFFC90FE15E04410F090FE1DE09D
:101163004410F053B2F353B1F390FE13E0440CF088
:1011730090FE1BE054F3F0D2A8D2AA90FD03E04402
:101183000CF0D2AF0213B2E4F528F527E528C31318
:10119300F5287F027E0012135D3090034328807F81
:1011A300027E0012135DD2917F027E0012135DC294
:1011B300910527E527C3940840D2AF28228F25D273
:1011C300B67F027E0012135DE5254401FF12122152
:1011D3007F027E0012135D12118A8F267F027E002A
:1011E30012135DC2B67F027E0012135DAF26227515
:1011F300F00A84E5F04EFD8F298D2AD2B67F027E58
:101203000012135DAF29121221AF2A1212217F029D
:101213007E0012135DC2B67F027E0002135D8F2B28
:10122300E4F52CE52B1392907F027E0012135DD21E
:10123300917F027E0012135DC291E52BC313F52B40
:10124300052CE52CC3940840DA22E4FDFCC3ED9F92
:10125300EC9E501CE4FBFAE4F90009B918FB0BBB44
:1012630000010ABA03F1BBE8EE0DBD00010C80DDFD
:1012730022EFB40A07740D12127F740A309811A872
:1012830099B8130CC2983098FDA899C298B811F672
:101293003099FDC299F59922FFE52675F008A4FD62
:1012A300EF44B0F52EED540FF52FEDC4540F441059
:1012B300F5307B007A00792E7D030210C7C297D2E6
:1012C300967F057E0012135DD2977F057E00121371
:1012D3005DA2969201C2977F057E0012135DA20163
:1012E30022014000C10BC10AC1091541FF19ABFF1F
:1012F30019B2FF19BAFF19C4FF19CDFF19D4FF1989
:10130300DD001508A808761EA808E6600EB2B47FB3
:10131300017E0012124DA8081680EDC2B405082202
:10132300D297D2967F057E0012135DC2967F057E0B
:101333000012135DC2977F057E0002135DC296C241
:10134300977F057E0012135DD2977F057E001213EF
:101353005DD2967F057E0002135DE4FDFCC3ED9F25
:10136300EC9E500EE4FB000BBB18FB0DBD00010C03
:1013730080EB22E4FFFE1204E8600C0FEF70010E15
:1013830009E970F20A80EF2243BA804392C0439185
:10139300C0D297D2967F017E0002124D5392FC5326
:1013A30091FC53B1BF43B240C291C290C2B6224333
:1013B300B21053B1EFC2B4220000000000000000DD
:1013C3000000000000000000000000F80000000022
:1013D300000000333000000000100C06100C060063
:1013E300000000000000000040C07840C0784000CA
:1013F300043F04043F040400007088FC083000002C
:10140300001820FF211E0000F008F000E018000083
:1014130000211C031E211E0000F00888700000003C
:101423001E2123241927211010160E00000000008E
:101433000000000000000000000000E018040200AB
:10144300000000071820400000020418E00000001C
:101453000040201807000000404080F0804040001A
:101463000202010F01020200000000F00000000070
:101473000101011F01010100000000000000000044
:1014830080B07000000000000000000000000000B9
:101493000001010101010101000000000000000042
:1014A30000303000000000000000000080601804DD
:1014B300006018060100000000E010080810E000BA
:1014C300000F102020100F00001010F80000000083
:1014D3000020203F202000000070080808887000CA
:1014E300003028242221300000300888884830004A
:1014F3000018202020110E000000C02010F800006A
:1015030000070424243F240000F808888808080002
:101513000019212020110E0000E010888818000017
:10152300000F112020110E0000380808C8380800E9
:101533000000003F00000000007088080888700069
:10154300001C222121221C0000E010080810E000EA
:101553000000312222110F00000000C0C000000073
:101563000000003030000000000000800000000098
:101573000000806000000000000080402010080090
:101583000001020408102000404040404040400059
:101593000404040404040400000810204080000034
:1015A3000020100804020100007048080808F00039
:1015B3000000003036010000C030C828E810E00009
:1015C3000718272423140B000000C038E000000094
:1015D300203C23020227382008F8888888700000FE
:1015E300203F202020110E00C030080808083800D2
:1015F300071820202010080008F808080810E00049
:10160300203F202020100F0008F88888E8081000E9
:10161300203F20202320180008F88888E8081000BD
:10162300203F200003000000C030080808380000F5
:1016330007182020221E020008F808000008F808F6
:10164300203F210101213F20000808F8080800007D
:101653000020203F2020000000000808F8080800B0
:10166300C08080807F00000008F888C02818080028
:10167300203F20012638200008F808000000000061
:10168300203F20202020300008F8F800F8F8080058
:10169300203F003F003F200008F830C00008F80852
:1016A300203F200007183F00E01008080810E00062
:1016B3000F10202020100F0008F808080808F00079
:1016C300203F210101010000E01008080810E0009C
:1016D3000F18242438504F0008F888888888700031
:1016E300203F2000030C30200070880808083800D1
:1016F3000038202121221C00180808F808081800C7
:101703000000203F2000000008F808000008F80847
:10171300001F202020201F000878880000C83808F8
:10172300000007380E010000F80800F80008F80070
:10173300033C0700073C030008186880806818080A
:1017430020302C03032C30200838C800C838080088
:101753000000203F2000000010080808C8380800D7
:101763002038262120201800000000FE020202007B
:101773000000007F40404000000C30C0000000002B
:10178300000000010638C00000020202FE00000053
:10179300004040407F0000000000040202020400F9
:1017A3000000000000000000000000000000000036
:1017B300808080808080808000020204000000001E
:1017C3000000000000000000000080808080000016
:1017D3000019242222223F2008F800808000000004
:1017E300003F112020110E000000008080800000C7
:1017F300000E112020201100000000808088F800D6
:10180300000E112020103F20000080808080000007
:10181300001F222222221300008080F0888888186B
:101823000020203F20200000000080808080800076
:10183300006B94949493600008F80080808000000B
:10184300203F210000203F200080989800000000E6
:101853000020203F20200000000000809898000016
:1018630000C08080807F000008F800008080800036
:10187300203F24022D302000000808F8000000005B
:101883000020203F20200000808080808080800016
:10189300203F20003F20003F8080008080800000A8
:1018A300203F210000203F20000080808080000036
:1018B300001F202020201F00808000808000000067
:1018C30080FFA12020110E00000000808080800096
:1018D300000E112020A0FF80808080008080800087
:1018E30020203F21200001000000808080808000B4
:1018F3000033242424241900008080E08080000029
:101903000000001F20200000808000000080800075
:10191300001F202020103F208080800000808080D6
:1019230000010E3008060100808000800080808066
:101933000F300C030C300F0000808000808080008B
:101943000020312E0E3120008080800000808080B6
:1019530080818E7018060100008080808080800066
:101963000021302C2221300000000000807C020284
:1019730000000000003F404000000000FF000000A6
:1019830000000000FF0000000002027C8000000055
:101993000040403F00000000000601010202040471
:1019A30000000000000000004D6F6E646179005478
:1019B300756573646179005765646E6573646179F5
:1019C3000054687572736461790046726964617961
:1019D3000053617475726461790053756E64617943
:1019E3000032302530326400232323230025303294
:1019F30064002323002573000000000000000000A2
:101A030000000000000000000000000000000000D3
:101A1300000000323025303264202F20253032641C
:101A2300202F202530326400257300253032643A9C
:0A1A3300253032643A253032640099
:00000001FF
