:0900000002000E8A838982E47378
:10000B0002009A787FE4F6D8FD75813C0200550218
:10001B0001BFE493A3F8E493A34003F68001F20835
:10002B00DFF48029E493A3F85407240CC8C333C42A
:10003B00540F4420C8834004F456800146F6DFE495
:10004B00800B01020408102040809001E3E47E0144
:10005B009360BCA3FF543F30E509541FFEE493A308
:10006B0060010ECF54C025E060A840B8E493A3FA1A
:10007B00E493A3F8E493A3C8C582C8CAC583CAF0A6
:10008B00A3C8C582C8CAC583CADFE9DEE780BEC084
:10009B00E0C0F0C083C082C0D075D000C000C001EA
:1000AB00C002C003C004C005C006C007758A6675D0
:1000BB008CFC753800E53875F003A42423F886030F
:1000CB0008E6FA08E64A4B6012E53875F003A424FB
:1000DB0023F808E6FA08E6F91200030538E538C3F9
:1000EB00940440D1D007D006D005D004D003D00261
:1000FB00D001D000D0D0D082D083D0F0D0E0328BE2
:10010B003A8A3B893CE4FFEF75F003A42423F8867D
:10011B000308E6FA08E6F9E53A853B83853C826BF2
:10012B007008E965827003EA65837002D3220FBF02
:10013B0004D5E4FFEF75F003A42423F8860308E647
:10014B00FA08E64A4B7016AA3BA93CEF75F003A4DC
:10015B002423F8A63A08A60208A601D3220FBF044F
:10016B00D3C322D2AFD2A95389F0438901758A66D2
:10017B00758CFCD28CE4FFEF75F003A42423F87686
:10018B00000876000876000FBF04EC227580FFE5AF
:10019B002F7004D2908002C290C292D292C291D29E
:1001AB00917430252FF8E6F580052FE52FB4080361
:1001BB00E4F52F2212016E120204E4F539740825BE
:1001CB0039F8E6F4FF12022E7FC812021B0539E53F
:1001DB0039C3941B40E780E2012F001B08F80AEC9F
:1001EB00AFEC8AF80010F997F188AAFFAA880014DF
:1001FB000AF59292F50A140000C2B5C2B47F0878D2
:10020B003074FFF608DFFC7BFF7A01799702010A55
:10021B00EFD39400400C007E027DC7DDFEDEFC1F99
:10022B0080EE227E07742F2EF8E6FD74302EF8A692
:06023B0005DEF28F302207
:00000001FF
