:0800000002000E1200BB80FE9D
:10000B0002009A787FE4F6D8FD758108020055024C
:10001B000003E493A3F8E493A34003F68001F208F2
:10002B00DFF48029E493A3F85407240CC8C333C42A
:10003B00540F4420C8834004F456800146F6DFE495
:10004B00800B01020408102040809000CEE47E015A
:10005B009360BCA3FF543F30E509541FFEE493A308
:10006B0060010ECF54C025E060A840B8E493A3FA1A
:10007B00E493A3F8E493A3C8C582C8CAC583CAF0A6
:10008B00A3C8C582C8CAC583CADFE9DEE780BEC084
:10009B00E0C0D0758A66758CFC0508C3E50894F43E
:1000AB00748094814005B280750800D0D0D0E032C6
:1000BB00D2AFD2A95389F0438901758A66758CFC3E
:0700CB00D28C2201080000A5
:00000001FF
