:0900000002000E8A838982E47378
:10000B0002009A787FE4F6D8FD758118020055023C
:10001B0001AAE493A3F8E493A34003F68001F2084A
:10002B00DFF48029E493A3F85407240CC8C333C42A
:10003B00540F4420C8834004F456800146F6DFE495
:10004B00800B01020408102040809001B8E47E016F
:10005B009360BCA3FF543F30E509541FFEE493A308
:10006B0060010ECF54C025E060A840B8E493A3FA1A
:10007B00E493A3F8E493A3C8C582C8CAC583CAF0A6
:10008B00A3C8C582C8CAC583CADFE9DEE780BEC084
:10009B00E0C0F0C083C082C0D075D000C000C001EA
:1000AB00C002C003C004C005C006C007758A6675D0
:1000BB008CFC751400E51475F003A42408F8860372
:1000CB0008E6FA08E64A4B6012E51475F003A4241F
:1000DB0008F808E6FA08E6F91200030514E514C35C
:1000EB00940440D1D007D006D005D004D003D00261
:1000FB00D001D000D0D0D082D083D0F0D0E0328BE2
:10010B00158A168917E4FFEF75F003A42408F88607
:10011B000308E6FA08E6F9E5158516838517826B61
:10012B007008E965827003EA65837002D3220FBF02
:10013B0004D5E4FFEF75F003A42408F8860308E662
:10014B00FA08E64A4B7016AA16A917EF75F003A426
:10015B002408F8A61508A60208A601D3220FBF048F
:10016B00D3C322D2AFD2A95389F0438901758A66D2
:10017B00758CFCD28CE4FFEF75F003A42408F876A1
:10018B00000876000876000FBF04EC220518C3E5C3
:10019B001894F4748094814005B280E4F51822120F
:1001AB00016E7BFF7A01799712010A80FE0118001C
:0101BB000043
:00000001FF
