:1000000002073AE5432437F8E605432278343007FF
:10001000027837E475F0011204AD0204822000EB8F
:100020007F2ED2008018EF540F2490D43440D4FF98
:1000300030040BEF24BFB41A0050032461FFE544E1
:10004000600215440547E5477002054630070D7804
:1000500034E475F0011204ADEF02049B0206C4748F
:1000600003D2078003E4C207F5438B348A3589360F
:10007000E4F544F546F547E54460077F2012003E6D
:1000800080F57545FFC201C200C202C203C205C2AB
:1000900006C20812000CFF700D3007057F00120029
:1000A0004FAF47AE4622B4255FC2D5C20412000C42
:1000B000FF24D0B40A00501A75F00A784430D505F0
:1000C00008B6FF0106C6A426F620D5047002D203A6
:1000D00080D924CFB41A00EF5004C2E5D204020242
:1000E0004FD20180C6D20080C0D20280BCD2D5805F
:1000F000BAD20580B47F2012003E2002077401B5F9
:10010000440040F1120003FF12003E020077D208C3
:10011000D2068095120003FB120003FA120003F9C5
:100120004A4B700679207A037BFF20022EE544605B
:100130002A7E008E8275830012045560060EEE65DD
:100140004570F0C2D5EBC0E0EAC0E0E9C0E0EE12D5
:100150000296D0E0F9D0E0FAD0E0FB120482FF6012
:10016000AAEBC0E0EAC0E0E9C0E012003ED0E02423
:1001700001F9D0E03400FAD0E0FBE5450460DCD5BD
:1001800045D980877BFF7A027992D202809C7910D0
:1001900080027908C206C2088008D2D5790A800494
:1001A000790AC2D5E545047002F545E4FAFDFEFF83
:1001B000120003FC7B08200113120003FD7B1030AA
:1001C000000A120003FE120003FF7B20EC3382D5ED
:1001D00092D55013C3E43000069FFFE49EFEE42056
:1001E00001039DFDE49CFCE4CBF8C201EC700CCF54
:1001F000CECDCCE824F8F870F38017C3EF33FFEED0
:1002000033FEED33FDEC33FCEB33FB994002FB0F87
:10021000D8E9EB300105F8D0E0C448B201C0E00AEB
:10022000EC4D4E4F78207B0070C2EAB5450040BCD3
:10023000C0E0120298D0F0D0E0200104C4C0E0C4B5
:10024000B201C0F0120027D0F0D5F0EB0200771217
:1002500004BD011453018E5800E54C00E1420192A7
:100260004F019A44019A4900FA4301A0550184467E
:1002700001844501844703405000E92D00ED2E0123
:10028000102B00F123010E2003292A00A9480000A9
:1002900001083F3F3F00790AA2D520031430050929
:1002A000B910020404B9080104A2D52006025001C5
:1002B000042002689202B544005034C0E07F203030
:1002C00003197F30A20272067205500F1202EFC2AC
:1002D00002C206C205C2087F30800F300503E9C0A4
:1002E000E012003E300503D0E0F9D0E0B544CC3058
:1002F00005177F30B9100C12003E7F583004077F7D
:10030000788003B9080312003E3002057F2D0200F9
:100310003E7F202008F87F2B2006F322920280CF18
:10032000286E756C6C2900D2011200033001F8C2EE
:1003300001784430D50108F60200A92D50434958F0
:100340001200032403B405004001E490033B931220
:10035000002F743A12002FD20375440402018EE775
:1003600009F608DFFA8046E709F208DFFA803E88DE
:10037000828C83E709F0A3DFFA8032E309F608DF15
:10038000FA8078E309F208DFFA807088828C83E3D0
:1003900009F0A3DFFA806489828A83E0A3F608DF8C
:1003A000FA805889828A83E0A3F208DFFA804C80C1
:1003B000D280FA80C680D4806980F2803380108039
:1003C000A680EA809A80A880DA80E280CA80338999
:1003D000828A83ECFAE493A3C8C582C8CCC583CCD7
:1003E000F0A3C8C582C8CCC583CCDFE9DEE7800DA9
:1003F00089828A83E493A3F608DFF9ECFAA9F0ED89
:10040000FB2289828A83ECFAE0A3C8C582C8CCC5E6
:1004100083CCF0A3C8C582C8CCC583CCDFEADEE8B4
:1004200080DB89828A83E493A3F208DFF980CC8899
:10043000F0EF60010E4E60C388F0ED2402B40400BA
:1004400050B9F582EB2402B4040050AF2323458257
:10045000239003AF73BB010CE58229F582E5833A53
:10046000F583E0225006E92582F8E622BBFE06E984
:100470002582F8E222E58229F582E5833AF583E4D4
:100480009322BB010689828A83E0225002E722BBC5
:10049000FE02E32289828A83E49322BB01068982D9
:1004A0008A83F0225002F722BBFE01F322FAE6FB18
:1004B0000808E6F925F0F618E6CA3AF622D083D005
:1004C00082F8E4937012740193700DA3A393F874EF
:1004D0000193F5828883E4737402936860EFA3A3A9
:1004E000A380DF8F348D358B368A378938753A2073
:1004F000753B027B007A00793A7D021205BBE53537
:1005000025E01206EBE4F539AB36AA37A938853970
:1005100082758300120455FF601DC374109534FE6C
:10052000E539C39E5011EF75F010A4245AF97405F3
:10053000120572053980D1E53525E0041206EBE499
:10054000F539AB36AA37A93885398275830012048C
:1005500055FF601DC374109534FEE539C39E5011DC
:10056000EF75F010A42462F9740512057205398044
:10057000D12235F0FA7BFF7D088B3C8A3D893E8D88
:100580003F1207467F7812069B12072D7F40120606
:100590009B12072DE4F540E540C3953F501AAB3C54
:1005A000AA3DA93E854082758300120455FF1206BC
:1005B0009B12072D054080DF02074F8B3F8A408941
:1005C000418D421207467F7812069B12072DE4FFE9
:1005D00012069B12072DE4F543E543C39542501ADA
:1005E000AB3FAA40A941854382758300120455FFA1
:1005F00012069B12072D054380DF02074F78257CEA
:10060000007D007BFF7A0D794A7E007F0812042F5F
:10061000752220E4F523FB7A0079227D021205BBC6
:10062000E4F5247B007A0079257D081205790524FC
:10063000E524C3948040EC221207101205FD7BFFD5
:100640007A0D7952E4FDFF1204E37BFF7A0D795FA6
:100650007D01E4FF1204E37527B275269E752543DC
:100660007524FF7D02E4FF12066C80FE8F228D232D
:100670007537FF75380775395685273D85263C85C2
:10068000253B85243A7B007A00792812005F7B00A5
:100690007A007928AD23AF220204E3AD07E4FC7EA3
:1006A000007480A804088006CEA2E713CE13D8F801
:1006B000FFEDFBEF5BD37001C39296D297C2970C0C
:1006C000BC08DC22EFB40A07740D1206CF740A309E
:1006D0009811A899B8130CC2983098FDA899C2989F
:1006E000B811F63099FDC299F59922FFE53475F0FD
:1006F00008A4FDEF44B0F53CED540FF53DEDC454B6
:100700000F4410F53E7B007A00793C7D030205BB67
:100710007522AE7523C87524A175258D75261475AF
:1007200027AF7B007A0079227D060205BBD296D2E4
:1007300097A2969200C297A20022787FE4F6D8FD95
:10074000758147020638D297D296C296C29722C2C6
:1007500096D297D29622256C64000000000000001B
:1007600000000000000000000000000000F8000091
:100770000000000000333000000000100C06100CD8
:100780000600000000000000000040C07840C07873
:100790004000043F04043F040400007088FC08305B
:1007A0000000001820FF211E0000F008F000E018F3
:1007B000000000211C031E211E0000F008887000AC
:1007C00000001E2123241927211010160E000000FE
:1007D00000000000000000000000000000E018041D
:1007E0000200000000071820400000020418E0008A
:1007F00000000040201807000000404080F08040CA
:1008000040000202010F01020200000000F000009F
:1008100000000101011F01010100000000000000B3
:10082000000080B070000000000000000000000028
:1008300000000001010101010101000000000000B1
:100840000000003030000000000000000000806068
:100850001804006018060100000000E010080810ED
:10086000E000000F102020100F00001010F8000012
:1008700000000020203F20200000007008080888A9
:100880007000003028242221300000300888884879
:1008900030000018202020110E000000C02010F8A9
:1008A000000000070424243F240000F8088888087A
:1008B00008000019212020110E0000E0108888187F
:1008C0000000000F112020110E0000380808C83861
:1008D00008000000003F0000000000708808088841
:1008E0007000001C222121221C0000E010080810CA
:1008F000E0000000312222110F00000000C0C00003
:100900000000000000303000000000000080000007
:100910000000000080600000000000008040201007
:100920000800000102040810200040404040404000
:100930004000040404040404040000081020408063
:100940000000002010080402010000704808080898
:10095000F0000000003036010000C030C828E81068
:10096000E0000718272423140B000000C038E00023
:100970000000203C23020227382008F8888888706D
:100980000000203F202020110E00C0300808080879
:100990003800071820202010080008F80808081060
:1009A000E000203F202020100F0008F88888E80889
:1009B0001000203F20202320180008F88888E8082D
:1009C0001000203F200003000000C0300808083855
:1009D000000007182020221E020008F80800000866
:1009E000F808203F210101213F20000808F80808ED
:1009F00000000020203F2020000000000808F80828
:100A00000800C08080807F00000008F888C0281897
:100A10000800203F20012638200008F808000000C8
:100A20000000203F20202020300008F8F800F8F8CF
:100A30000800203F003F003F200008F830C00008B9
:100A4000F808203F200007183F00E01008080810B1
:100A5000E0000F10202020100F0008F808080808F8
:100A6000F000203F210101010000E01008080810FB
:100A7000E0000F18242438504F0008F88888888830
:100A80007000203F2000030C302000708808080808
:100A900038000038202121221C00180808F8080816
:100AA00018000000203F2000000008F8080000089F
:100AB000F808001F202020201F000878880000C8A8
:100AC0003808000007380E010000F80800F8000898
:100AD000F800033C0700073C0300081868808068A2
:100AE000180820302C03032C30200838C800C838E0
:100AF00008000000203F2000000010080808C83847
:100B000008002038262120201800000000FE0202E4
:100B100002000000007F40404000000C30C0000098
:100B20000000000000010638C00000020202FE00C2
:100B30000000004040407F0000000000040202026C
:100B400004000000000000000000000000000000A1
:100B5000000080808080808080800002020400008D
:100B60000000000000000000000000008080808085
:100B700000000019242222223F2008F80080800073
:100B80000000003F112020110E0000000080808036
:100B90000000000E1120202011000000008080883D
:100BA000F800000E112020103F200000808080807F
:100BB0000000001F222222221300008080F088887B
:100BC00088180020203F20200000000080808080C6
:100BD0008000006B94949493600008F800808080FB
:100BE0000000203F210000203F2000809898000056
:100BF00000000020203F2020000000000080989886
:100C0000000000C08080807F000008F80000808025
:100C10008000203F24022D302000000808F800004A
:100C200000000020203F2020000080808080808005
:100C30008000203F20003F20003F80800080808097
:100C40000000203F210000203F20000080808080A5
:100C50000000001F202020201F00808000808000D6
:100C6000000080FFA12020110E0000000080808085
:100C70008000000E112020A0FF80808080008080F6
:100C8000800020203F212000010000008080808023
:100C900080000033242424241900008080E0808018
:100CA00000000000001F2020000080800000008065
:100CB0008000001F202020103F20808080000080C6
:100CC000808000010E3008060100808000800080D6
:100CD00080800F300C030C300F000080800080807B
:100CE00080000020312E0E312000808080000080A6
:100CF000808080818E701806010000808080808056
:100D000080000021302C2221300000000000807C77
:100D1000020200000000003F404000000000FF0011
:100D2000000000000000FF0000000002027C8000C4
:100D300000000040403F00000000000601010202E8
:100D4000040400000000000000000000000000009B
:100D5000000048656C6C6F20576F726C6421005105
:050D600020582059009D
:00000001FF
