:100000000207F0E5432437F8E60543227834300749
:10001000027837E475F0011204AD0204822000EB8F
:100020007F2ED2008018EF540F2490D43440D4FF98
:1000300030040BEF24BFB41A0050032461FFE544E1
:10004000600215440547E5477002054630070D7804
:1000500034E475F0011204ADEF02049B02070F7443
:1000600003D2078003E4C207F5438B348A3589360F
:10007000E4F544F546F547E54460077F2012003E6D
:1000800080F57545FFC201C200C202C203C205C2AB
:1000900006C20812000CFF700D3007057F00120029
:1000A0004FAF47AE4622B4255FC2D5C20412000C42
:1000B000FF24D0B40A00501A75F00A784430D505F0
:1000C00008B6FF0106C6A426F620D5047002D203A6
:1000D00080D924CFB41A00EF5004C2E5D204020242
:1000E0004FD20180C6D20080C0D20280BCD2D5805F
:1000F000BAD20580B47F2012003E2002077401B5F9
:10010000440040F1120003FF12003E020077D208C3
:10011000D2068095120003FB120003FA120003F9C5
:100120004A4B700679207A037BFF20022EE544605B
:100130002A7E008E8275830012045560060EEE65DD
:100140004570F0C2D5EBC0E0EAC0E0E9C0E0EE12D5
:100150000296D0E0F9D0E0FAD0E0FB120482FF6012
:10016000AAEBC0E0EAC0E0E9C0E012003ED0E02423
:1001700001F9D0E03400FAD0E0FBE5450460DCD5BD
:1001800045D980877BFF7A027992D202809C7910D0
:1001900080027908C206C2088008D2D5790A800494
:1001A000790AC2D5E545047002F545E4FAFDFEFF83
:1001B000120003FC7B08200113120003FD7B1030AA
:1001C000000A120003FE120003FF7B20EC3382D5ED
:1001D00092D55013C3E43000069FFFE49EFEE42056
:1001E00001039DFDE49CFCE4CBF8C201EC700CCF54
:1001F000CECDCCE824F8F870F38017C3EF33FFEED0
:1002000033FEED33FDEC33FCEB33FB994002FB0F87
:10021000D8E9EB300105F8D0E0C448B201C0E00AEB
:10022000EC4D4E4F78207B0070C2EAB5450040BCD3
:10023000C0E0120298D0F0D0E0200104C4C0E0C4B5
:10024000B201C0F0120027D0F0D5F0EB0200771217
:1002500004BD011453018E5800E54C00E1420192A7
:100260004F019A44019A4900FA4301A0550184467E
:1002700001844501844703405000E92D00ED2E0123
:10028000102B00F123010E2003292A00A9480000A9
:1002900001083F3F3F00790AA2D520031430050929
:1002A000B910020404B9080104A2D52006025001C5
:1002B000042002689202B544005034C0E07F203030
:1002C00003197F30A20272067205500F1202EFC2AC
:1002D00002C206C205C2087F30800F300503E9C0A4
:1002E000E012003E300503D0E0F9D0E0B544CC3058
:1002F00005177F30B9100C12003E7F583004077F7D
:10030000788003B9080312003E3002057F2D0200F9
:100310003E7F202008F87F2B2006F322920280CF18
:10032000286E756C6C2900D2011200033001F8C2EE
:1003300001784430D50108F60200A92D50434958F0
:100340001200032403B405004001E490033B931220
:10035000002F743A12002FD20375440402018EE775
:1003600009F608DFFA8046E709F208DFFA803E88DE
:10037000828C83E709F0A3DFFA8032E309F608DF15
:10038000FA8078E309F208DFFA807088828C83E3D0
:1003900009F0A3DFFA806489828A83E0A3F608DF8C
:1003A000FA805889828A83E0A3F208DFFA804C80C1
:1003B000D280FA80C680D4806980F2803380108039
:1003C000A680EA809A80A880DA80E280CA80338999
:1003D000828A83ECFAE493A3C8C582C8CCC583CCD7
:1003E000F0A3C8C582C8CCC583CCDFE9DEE7800DA9
:1003F00089828A83E493A3F608DFF9ECFAA9F0ED89
:10040000FB2289828A83ECFAE0A3C8C582C8CCC5E6
:1004100083CCF0A3C8C582C8CCC583CCDFEADEE8B4
:1004200080DB89828A83E493A3F208DFF980CC8899
:10043000F0EF60010E4E60C388F0ED2402B40400BA
:1004400050B9F582EB2402B4040050AF2323458257
:10045000239003AF73BB010CE58229F582E5833A53
:10046000F583E0225006E92582F8E622BBFE06E984
:100470002582F8E222E58229F582E5833AF583E4D4
:100480009322BB010689828A83E0225002E722BBC5
:10049000FE02E32289828A83E49322BB01068982D9
:1004A0008A83F0225002F722BBFE01F322FAE6FB18
:1004B0000808E6F925F0F618E6CA3AF622D083D005
:1004C00082F8E4937012740193700DA3A393F874EF
:1004D0000193F5828883E4737402936860EFA3A3A9
:1004E000A380DF8F348D358B368A378938753A2073
:1004F000753B027B007A00793A7D02120613E535DE
:1005000025E0120736E4F539AB36AA37A938853924
:1005100082758300120455FFE539C39F7E005002A7
:100520007E01EE601DC374109534FEE539C39E5004
:1005300011EF75F010A4242BF97406120588053903
:1005400080C6E53525E004120736E4F539AB36AA56
:1005500037A938853982758300120455FFE539C300
:100560009F7E0050027E01EE601DC374109534FE24
:10057000E539C39E5011EF75F010A42433F97406C9
:10058000120588053980C62235F0FA7BFF7D088B7D
:100590003C8A3D893E8D3F1207FC7F781206BF12D0
:1005A00007E37F401206BF1207E3E4F540E540C3CE
:1005B000953F501AAB3CAA3DA93E85408275830009
:1005C000120455FF1206BF1207E3054080DF020840
:1005D000051207BB7FCC12077D7F4412077D1207EF
:1005E000BB7FCC12077D7FBE12077D1206E88F22EB
:1005F0001206E87E047804EF088002C333D8FCFEBC
:10060000AF227D047804EF088002C313D8FCF522E2
:100610004EFF228B3F8A4089418D421207FC7F7832
:100620001206BF1207E3E4FF1206BF1207E3E4F568
:1006300043E543C39542501AAB3FAA40A9418543C5
:1006400082758300120455FF1206BF1207E30543AB
:1006500080DF02080578257C007D007BFF7A0E791B
:100660001B7E007F0812042F752220E4F523FB7AFD
:100670000079227D02120613E4F5247B007A0079CA
:10068000257D0812058F0524E524C3948040EC22C3
:100690008F228D237537FF75380875392785273DDB
:1006A00085263C85253B85243A7B007A00792812F3
:1006B000005F7B007A007928AD23AF220204E3AD0E
:1006C00007E4FC7E007480A804088006CEA2E7132D
:1006D000CE13D8F8FFEDFBEF5BD37001C39296D237
:1006E00097C2970CBC08DC22E4F524F523C2ECD2B7
:1006F000EC120822E524C313F52430EC03432480D4
:100700001208120523E523C3940840E1AF2422EF29
:10071000B40A07740D12071A740A309811A899B810
:10072000130CC2983098FDA899C298B811F6309968
:10073000FDC299F59922FFE53475F008A4FDEF4458
:10074000B0F53CED540FF53DEDC4540F4410F53EAB
:100750007B007A00793C7D0302061312079E120685
:10076000551205D1EF3395E08F27F526F525F524B1
:10077000E4FDFF1206907FF41207D080E48F23E49B
:10078000F524C2ECE5231392ECE523C313F5231201
:100790000818D2EC0524E524C3940840E52275220C
:1007A000AE7523C87524A175258D7526147527AFE0
:1007B0007B007A0079227D06020613C2EC12080C37
:1007C000D2EC120818A2ECB3920012081DA200226B
:1007D000EFD39400400C007E027DC7DDFEDEFC1FDF
:1007E00080EE22D296D297A2969200C297A20022C1
:1007F000787FE4F6D8FD75814702075BD297D296E1
:10080000C296C29722C296D297D29622007FDADF92
:10081000FE22007F14DFFE227F19DFFE227FBFDF72
:10082000FE227F02DFFE22256C6400000000000033
:100830000000000000000000000000000000F800C0
:10084000000000000000333000000000100C061013
:100850000C0600000000000000000040C07840C00E
:10086000784000043F04043F040400007088FC0842
:10087000300000001820FF211E0000F008F000E00A
:1008800018000000211C031E211E0000F0088870C3
:100890000000001E2123241927211010160E00002D
:1008A0000000000000000000000000000000E01850
:1008B000040200000000071820400000020418E0B5
:1008C0000000000040201807000000404080F08039
:1008D0004040000202010F01020200000000F0008F
:1008E0000000000101011F010101000000000000E3
:1008F00000000080B0700000000000000000000058
:1009000000000000010101010101010000000000E0
:1009100000000000303000000000000000000080F7
:10092000601804006018060100000000E0100808CC
:1009300010E000000F102020100F00001010F80031
:100940000000000020203F20200000007008080860
:100950008870000030282422213000003008888868
:100960004830000018202020110E000000C0201088
:10097000F8000000070424243F240000F8088888B9
:100980000808000019212020110E0000E0108888BE
:10099000180000000F112020110E0000380808C8B0
:1009A0003808000000003F000000000070880808C0
:1009B000887000001C222121221C0000E010080881
:1009C00010E0000000312222110F00000000C0C022
:1009D0000000000000003030000000000000800037
:1009E0000000000000806000000000000080402047
:1009F0001008000001020408102000404040404060
:100A000040400004040404040404000008102040D2
:100A1000800000002010080402010000704808084F
:100A200008F0000000003036010000C030C828E89F
:100A300010E0000718272423140B000000C038E042
:100A4000000000203C23020227382008F88888880C
:100A5000700000203F202020110E00C03008080840
:100A6000083800071820202010080008F808080897
:100A700010E000203F202020100F0008F88888E8B0
:100A8000081000203F20202320180008F88888E85C
:100A9000081000203F200003000000C030080808B4
:100AA00038000007182020221E020008F808000065
:100AB00008F808203F210101213F20000808F8081C
:100AC0000800000020203F2020000000000808F857
:100AD000080800C08080807F00000008F888C028D7
:100AE000180800203F20012638200008F8080000E0
:100AF000000000203F20202020300008F8F800F8F7
:100B0000F80800203F003F003F200008F830C000F8
:100B100008F808203F200007183F00E010080808E8
:100B200010E0000F10202020100F0008F80808081F
:100B300008F000203F210101010000E01008080832
:100B400010E0000F18242438504F0008F8888888D7
:100B5000887000203F2000030C30200070880808B7
:100B60000838000038202121221C00180808F80845
:100B70000818000000203F2000000008F8080000CE
:100B800008F808001F202020201F00087888000097
:100B9000C83808000007380E010000F80800F80007
:100BA00008F800033C0700073C0300081868808031
:100BB00068180820302C03032C30200838C800C8DF
:100BC0003808000000203F2000000010080808C876
:100BD0003808002038262120201800000000FE02DE
:100BE0000202000000007F40404000000C30C000C6
:100BF000000000000000010638C00000020202FEF2
:100C0000000000004040407F00000000000402029D
:100C100002040000000000000000000000000000CE
:100C200000000080808080808080800002020400BC
:100C30000000000000000000000000000080808034
:100C40008000000019242222223F2008F800808022
:100C5000000000003F112020110E000000008080E5
:100C6000800000000E112020201100000000808074
:100C700088F800000E112020103F200000808080A6
:100C8000800000001F222222221300008080F088B2
:100C90008888180020203F202000000000808080ED
:100CA000808000006B94949493600008F80080802A
:100CB000800000203F210000203F20008098980005
:100CC0000000000020203F2020000000000080984D
:100CD00098000000C08080807F000008F80000803D
:100CE000808000203F24022D302000000808F800FA
:100CF0000000000020203F202000008080808080B5
:100D0000808000203F20003F20003F8080008080C6
:100D1000800000203F210000203F200000808080D4
:100D2000800000001F202020201F00808000808085
:100D300000000080FFA12020110E00000000808034
:100D4000808000000E112020A0FF80808080008025
:100D500080800020203F2120000100000080808052
:100D60008080000033242424241900008080E08047
:100D70008000000000001F20200000808000000094
:100D8000808000001F202020103F208080800000F5
:100D900080808000010E3008060100808000800005
:100DA0008080800F300C030C300F000080800080AA
:100DB0008080000020312E0E3120008080800000D5
:100DC00080808080818E7018060100008080808085
:100DD0008080000021302C222130000000000080A3
:100DE0007C020200000000003F404000000000FFC5
:100DF00000000000000000FF0000000002027C80F4
:100E00000000000040403F00000000000601010219
:100E100002040400000000000000000000000000C8
:030E2000000000CF
:00000001FF
