:10000000020066C0E0C0F0C083C082C0D075D000DE
:10001000C000C001C002C003C004C005C006C007C4
:1000200012026E20B70F30B7FD050DE50DD3940415
:100030004003750D0090FD13E0547FF0D007D0060B
:10004000D005D004D003D002D001D000D0D0D082CF
:07005000D083D0F0D0E032B4
:03005B000200039D
:100063000200F2787FE4F6D8FD75810E0200AD023E
:100073000287E493A3F8E493A34003F68001F20814
:10008300DFF48029E493A3F85407240CC8C333C4D2
:10009300540F4420C8834004F456800146F6DFE43D
:1000A300800B010204081020408090023CE47E0192
:1000B3009360BCA3FF543F30E509541FFEE493A3B0
:1000C30060010ECF54C025E060A840B8E493A3FAC2
:1000D300E493A3F8E493A3C8C582C8CAC583CAF04E
:1000E300A3C8C582C8CAC583CADFE9DEE780BEC02C
:1000F300E0C0D00509E50CD395094008C2B2C2B3EC
:10010300C2B48006D2B2D2B3D2B4E509C394644078
:1001130003750900050BE50B7002050AC39464E53A
:100123000A94004027750A00750B00E508700F0557
:100133000C050CE50C94644013750801800E150C36
:10014300150CE50CD394005003750800D0D0D0E013
:1001530032E50D14601A14602414602E14603824E0
:1001630004703FE50E600612027BE4F50E02029C6A
:10017300E50E600612027BE4F50E0202A3E50E60B3
:100183000612027BE4F50E02025FE50E6006120220
:100193007BE4F50E020221E50E70171201EC750ED9
:1001A3000122E50E600612027BE4F50E12029CE4C6
:1001B300F50D2243B21C53B1E390FE23E054E3F068
:1001C30090FE2BE054E3F053B27F53B17F90FE13C4
:1001D300E04480F090FE1BE0547FF0438F2090FDBD
:1001E30003E04480F043A8802243B21C53B1E39060
:1001F300FE23E054E3F090FE2BE054E3F0538EEF44
:10020300538EF7438E0490FEA27417F075D79C7536
:10021300D6FF538FFB43AF04D2AF438E1022C2B23B
:10022300D2B3D2B4120250C2B3D2B2D2B412025079
:10023300C2B4D2B2D2B3020250010C0001090001D0
:100243000800020A0000010D00010E000000007FFB
:10025300197E5A7DB0DDFEDEFCDFFA2212029C120B
:100263000250C2B2C2B3C2B40202507F027E387DD2
:10027300ACDDFEDEFCDFFA22538EEF53AFFBE4F579
:100283000CF509221202921201B612015480FB43AB
:10029300BA8043FF5053FFFC22D2B2D2B3D2B4226E
:0702A300C2B2C2B3C2B422D3
:00000001FF
