:100000000207B5E54A243EF8E6054A22783B300768
:1000100002783EE475F0011204CF0204552000EB93
:100020007F2ED2008018EF540F2490D43440D4FF98
:1000300030040BEF24BFB41A0050032461FFE54BDA
:100040006002154B054EE54E7002054D30070D78E8
:100050003BE475F0011204CFEF02049B0209FE7429
:1000600003D2078003E4C207F54A8B3B8A3C893DF3
:10007000E4F54BF54DF54EE54B60077F2012003E51
:1000800080F5754CFFC201C200C202C203C205C2A4
:1000900006C20812000CFF700D3007057F00120029
:1000A0004FAF4EAE4D22B4255FC2D5C20412000C34
:1000B000FF24D0B40A00501A75F00A784B30D505E9
:1000C00008B6FF0106C6A426F620D5047002D203A6
:1000D00080D924CFB41A00EF5004C2E5D204020242
:1000E0004FD20180C6D20080C0D20280BCD2D5805F
:1000F000BAD20580B47F2012003E2002077401B5F9
:100100004B0040F1120003FF12003E020077D208BC
:10011000D2068095120003FB120003FA120003F9C5
:100120004A4B700679207A037BFF20022EE54B6054
:100130002A7E008E8275830012046E60060EEE65C4
:100140004C70F0C2D5EBC0E0EAC0E0E9C0E0EE12CE
:100150000296D0E0F9D0E0FAD0E0FB120455FF603F
:10016000AAEBC0E0EAC0E0E9C0E012003ED0E02423
:1001700001F9D0E03400FAD0E0FBE54C0460DCD5B6
:100180004CD980877BFF7A027992D202809C7910C9
:1001900080027908C206C2088008D2D5790A800494
:1001A000790AC2D5E54C047002F54CE4FAFDFEFF75
:1001B000120003FC7B08200113120003FD7B1030AA
:1001C000000A120003FE120003FF7B20EC3382D5ED
:1001D00092D55013C3E43000069FFFE49EFEE42056
:1001E00001039DFDE49CFCE4CBF8C201EC700CCF54
:1001F000CECDCCE824F8F870F38017C3EF33FFEED0
:1002000033FEED33FDEC33FCEB33FB994002FB0F87
:10021000D8E9EB300105F8D0E0C448B201C0E00AEB
:10022000EC4D4E4F78207B0070C2EAB54C0040BCCC
:10023000C0E0120298D0F0D0E0200104C4C0E0C4B5
:10024000B201C0F0120027D0F0D5F0EB0200771217
:1002500004DF011453018E5800E54C00E142019285
:100260004F019A44019A4900FA4301A0550184467E
:1002700001844501844703405000E92D00ED2E0123
:10028000102B00F123010E2003292A00A9480000A9
:1002900001083F3F3F00790AA2D520031430050929
:1002A000B910020404B9080104A2D52006025001C5
:1002B000042002689202B54B005034C0E07F203029
:1002C00003197F30A20272067205500F1202EFC2AC
:1002D00002C206C205C2087F30800F300503E9C0A4
:1002E000E012003E300503D0E0F9D0E0B54BCC3051
:1002F00005177F30B9100C12003E7F583004077F7D
:10030000788003B9080312003E3002057F2D0200F9
:100310003E7F202008F87F2B2006F322920280CF18
:10032000286E756C6C2900D2011200033001F8C2EE
:1003300001784B30D50108F60200A92D50434958E9
:100340001200032403B405004001E490033B931220
:10035000002F743A12002FD203754B0402018EE76E
:1003600009F608DFFA8046E709F208DFFA803E88DE
:10037000828C83E709F0A3DFFA8032E309F608DF15
:10038000FA8078E309F208DFFA807088828C83E3D0
:1003900009F0A3DFFA806489828A83E0A3F608DF8C
:1003A000FA805889828A83E0A3F208DFFA804C80C1
:1003B000D280FA80C680D4806980F2803380108039
:1003C000A680EA809A80A880DA80E280CA80338999
:1003D000828A83ECFAE493A3C8C582C8CCC583CCD7
:1003E000F0A3C8C582C8CCC583CCDFE9DEE7800DA9
:1003F00089828A83E493A3F608DFF9ECFAA9F0ED89
:10040000FB2289828A83ECFAE0A3C8C582C8CCC5E6
:1004100083CCF0A3C8C582C8CCC583CCDFEADEE8B4
:1004200080DB89828A83E493A3F208DFF980CC8899
:10043000F0EF60010E4E60C388F0ED2402B40400BA
:1004400050B9F582EB2402B4040050AF2323458257
:10045000239003AF73BB010689828A83E022500296
:10046000E722BBFE02E32289828A83E49322BB0156
:100470000CE58229F582E5833AF583E0225006E90E
:100480002582F8E622BBFE06E92582F8E222E58213
:1004900029F582E5833AF583E49322BB010689823C
:1004A0008A83F0225002F722BBFE01F322F8BB013F
:1004B0000DE58229F582E5833AF583E8F0225006BE
:1004C000E92582C8F622BBFE05E92582C8F222FA98
:1004D000E6FB0808E6F925F0F618E6CA3AF622D057
:1004E00083D082F8E4937012740193700DA3A393E8
:1004F000F8740193F5828883E4737402936860EF63
:10050000A3A3A380DF753919753809753705753AC6
:100510000475360DE4F535F534120A6B12090E1226
:100520000AE57B007A0079341205C27B007A0079F3
:100530003412071C12088A8F22753EFF753F117511
:10054000401F754100853942754300853844754523
:1005500000853746E53A75F003A42405F8860308BC
:10056000E6FA08E68B478A48F5497B007A0079234A
:1005700012005F7B007A007923E4FDFF1206777595
:100580003EFF753F11754033754100853642754316
:1005900000853544754500853446AF22EF3395E03C
:1005A000F5478F487B007A00792312005F7B007A41
:1005B0000079237D01E4FF1206777FF4120AB50269
:1005C000052BE4FD7F8E120985120455FF75F00A94
:1005D00084C454F0FEEF7F8012097D900001120464
:1005E0006EFF75F00A84C454F0FEEF7F8212097D1D
:1005F00090000212046EFF75F00A84C454F0FEEFFE
:1006000075F00A84E5F04EFD7F84120985900003A1
:1006100012046EFF75F00A84C454F0FEEF75F00A00
:1006200084E5F04EFD7F8612098590000412046E69
:10063000FF75F00A84C454F0FEEF75F00A84E5F00B
:100640004EFD7F8812098590000512046EFF75F03B
:100650000A84C454F0FEEF75F00A84E5F04EFD7F85
:100660008C12098590000612046EFD7F8A1209859E
:100670007D807F8E0209858F3B8D3C8B3D8A3E8934
:100680003F7541207542027B007A0079417D02125C
:1006900008CCE53C25E0120A25E4F540AB3DAA3E36
:1006A000A93F85408275830012046EFFE540C39F19
:1006B0007E0050027E01EE601DC37410953BFEE586
:1006C00040C39E5011EF75F010A4240BF974091269
:1006D0000841054080C6E53C25E004120A25E4F502
:1006E00040AB3DAA3EA93F85408275830012046E4F
:1006F000FFE540C39F7E0050027E01EE601DC37483
:1007000010953BFEE540C39E5011EF75F010A424F8
:1007100013F97409120841054080C6227F8112092D
:1007200049EFC4540F75F00AA4FEEF540F2E1204C3
:100730009B7F83120949EFC4540F75F00AA4FEEFA2
:10074000540F2E9000011204AD7F85120949EFC4A9
:10075000540F75F00AA4FEEF540F2E9000021204FD
:10076000AD7F87120949EFC4540F75F00AA4FEEF5C
:10077000540F2E9000031204AD7F89120949EFC473
:10078000540F75F00AA4FEEF540F2E9000041204CB
:10079000AD7F8D120949EFC4540F75F00AA4FEEF26
:1007A000540F2E9000051204AD7F8B120949900062
:1007B00006EF0204AD787FE4F6D8FD75814E02079E
:1007C000FC020505E493A3F8E493A34003F680013B
:1007D000F208DFF48029E493A3F85407240CC8C37B
:1007E00033C4540F4420C8834004F456800146F6B5
:1007F000DFE4800B0102040810204080900A88E4A6
:100800007E019360BCA3FF543F30E509541FFEE412
:1008100093A360010ECF54C025E060A840B8E493D4
:10082000A3FAE493A3F8E493A3C8C582C8CAC58316
:10083000CAF0A3C8C582C8CAC583CADFE9DEE7809B
:10084000BE35F0FA7BFF7D088B468A4789488D4983
:10085000120AD57F781209AE120AC87F401209AE7B
:10086000120AC8E4F54AE54AC39549501AAB46AAAC
:1008700047A948854A8275830012046EFF1209AEAB
:10088000120AC8054A80DF020ADE120AA07FCC12D3
:100890000A4A7F44120A4A120AA07FCC120A4A7FEF
:1008A000BE120A4A1209D78F3B1209D77E04780478
:1008B000EF088002C333D8FCFEAF3B7D047804EF21
:1008C000088002C313D8FCF53B4EFF228B468A47B3
:1008D00089488D49120AD57F781209AE120AC8E4F8
:1008E000FF1209AE120AC8E4F54AE54AC395495019
:1008F0001AAB46AA47A948854A8275830012046E3E
:10090000FF1209AE120AC8054A80DF020ADE783EED
:100910007C007D007BFF7A1079FB7E007F0812044B
:100920002F753B20E4F53CFB7A00793B7D021208F1
:10093000CCE4F53D7B007A00793E7D08120848053D
:100940003DE53DC3948040EC22E4FED2E9FDEF1387
:1009500092E8EFC313FFD2B7C2B70DBD08F030E87D
:1009600003430680E4FDD2B7C2B7EEC313FE30E8FE
:10097000034306800DBD07EEC2E9AF062275F00AFB
:1009800084E5F04EFDD2E9E4FEEF1392E8EFC313E5
:10099000FFD2B7C2B70EBE08F0E4FEED1392E8ED49
:1009A000C313FDD2B7C2B70EBE08F0C2E922AD072D
:1009B000E4FC7E007480A804088006CEA2E713CE73
:1009C00013D8F8FFEDFBEF5BD37001C39296D2977B
:1009D000C2970CBC08DC22E4F53DF53CC2ECD2EC3D
:1009E000120B02E53DC313F53D30EC03433D80128D
:1009F0000AF2053CE53CC3940840E1AF3D22EFB468
:100A00000A07740D120A09740A309811A899B813CC
:100A10000CC2983098FDA899C298B811F63099FD8B
:100A2000C299F59922FFE53B75F008A4FDEF44B0AB
:100A3000F543ED540FF544EDC4540F4410F5457BD8
:100A4000007A0079437D030208CC8F3CE4F53DC277
:100A5000ECE53C1392ECE53CC313F53C120AF8D2EA
:100A6000EC053DE53DC3940840E522753BAE753C81
:100A7000C8753DA1753E8D753F147540AF7B007AFA
:100A800000793B7D060208CC1508FF1103FF110712
:100A9000FF110BFF110FFF1113FF1117FF111B00A7
:100AA000C2EC120AECD2EC120AF8A2ECB3920012D9
:100AB0000AFDA20022EFD39400400C007E027DC705
:100AC000DDFEDEFC1F80EE22D296D297A296920027
:100AD000C297A20022D297D296C296C29722C296FD
:100AE000D297D29622C2B7C2E9C2E822007FDADFEB
:100AF000FE22007F14DFFE227F19DFFE227FBFDF90
:100B0000FE227F02DFFE22256C6400000000000050
:100B10000000000000000000000000000000F800DD
:100B2000000000000000333000000000100C061030
:100B30000C0600000000000000000040C07840C02B
:100B4000784000043F04043F040400007088FC085F
:100B5000300000001820FF211E0000F008F000E027
:100B600018000000211C031E211E0000F0088870E0
:100B70000000001E2123241927211010160E00004A
:100B80000000000000000000000000000000E0186D
:100B9000040200000000071820400000020418E0D2
:100BA0000000000040201807000000404080F08056
:100BB0004040000202010F01020200000000F000AC
:100BC0000000000101011F01010100000000000000
:100BD00000000080B0700000000000000000000075
:100BE00000000000010101010101010000000000FE
:100BF0000000000030300000000000000000008015
:100C0000601804006018060100000000E0100808E9
:100C100010E000000F102020100F00001010F8004E
:100C20000000000020203F2020000000700808087D
:100C30008870000030282422213000003008888885
:100C40004830000018202020110E000000C02010A5
:100C5000F8000000070424243F240000F8088888D6
:100C60000808000019212020110E0000E0108888DB
:100C7000180000000F112020110E0000380808C8CD
:100C80003808000000003F000000000070880808DD
:100C9000887000001C222121221C0000E01008089E
:100CA00010E0000000312222110F00000000C0C03F
:100CB0000000000000003030000000000000800054
:100CC0000000000000806000000000000080402064
:100CD000100800000102040810200040404040407D
:100CE00040400004040404040404000008102040F0
:100CF000800000002010080402010000704808086D
:100D000008F0000000003036010000C030C828E8BC
:100D100010E0000718272423140B000000C038E05F
:100D2000000000203C23020227382008F888888829
:100D3000700000203F202020110E00C0300808085D
:100D4000083800071820202010080008F8080808B4
:100D500010E000203F202020100F0008F88888E8CD
:100D6000081000203F20202320180008F88888E879
:100D7000081000203F200003000000C030080808D1
:100D800038000007182020221E020008F808000082
:100D900008F808203F210101213F20000808F80839
:100DA0000800000020203F2020000000000808F874
:100DB000080800C08080807F00000008F888C028F4
:100DC000180800203F20012638200008F8080000FD
:100DD000000000203F20202020300008F8F800F814
:100DE000F80800203F003F003F200008F830C00016
:100DF00008F808203F200007183F00E01008080806
:100E000010E0000F10202020100F0008F80808083C
:100E100008F000203F210101010000E0100808084F
:100E200010E0000F18242438504F0008F8888888F4
:100E3000887000203F2000030C30200070880808D4
:100E40000838000038202121221C00180808F80862
:100E50000818000000203F2000000008F8080000EB
:100E600008F808001F202020201F000878880000B4
:100E7000C83808000007380E010000F80800F80024
:100E800008F800033C0700073C030008186880804E
:100E900068180820302C03032C30200838C800C8FC
:100EA0003808000000203F2000000010080808C893
:100EB0003808002038262120201800000000FE02FB
:100EC0000202000000007F40404000000C30C000E3
:100ED000000000000000010638C00000020202FE0F
:100EE000000000004040407F0000000000040202BB
:100EF00002040000000000000000000000000000EC
:100F000000000080808080808080800002020400D9
:100F10000000000000000000000000000080808051
:100F20008000000019242222223F2008F80080803F
:100F3000000000003F112020110E00000000808002
:100F4000800000000E112020201100000000808091
:100F500088F800000E112020103F200000808080C3
:100F6000800000001F222222221300008080F088CF
:100F70008888180020203F2020000000008080800A
:100F8000808000006B94949493600008F800808047
:100F9000800000203F210000203F20008098980022
:100FA0000000000020203F2020000000000080986A
:100FB00098000000C08080807F000008F80000805A
:100FC000808000203F24022D302000000808F80017
:100FD0000000000020203F202000008080808080D2
:100FE000808000203F20003F20003F8080008080E4
:100FF000800000203F210000203F200000808080F2
:10100000800000001F202020201F008080008080A2
:1010100000000080FFA12020110E00000000808051
:10102000808000000E112020A0FF80808080008042
:1010300080800020203F212000010000008080806F
:101040008080000033242424241900008080E08064
:101050008000000000001F202000008080000000B1
:10106000808000001F202020103F20808080000012
:1010700080808000010E3008060100808000800022
:101080008080800F300C030C300F000080800080C7
:101090008080000020312E0E3120008080800000F2
:1010A00080808080818E70180601000080808080A2
:1010B0008080000021302C222130000000000080C0
:1010C0007C020200000000003F404000000000FFE2
:1010D00000000000000000FF0000000002027C8011
:1010E0000000000040403F00000000000601010237
:1010F00002040400000000000000000000000000E6
:101100000000004D6F6E0054756500576564005413
:10111000687500467269005361740053756E003241
:1011200030253032642F253032642F253032642050
:10113000257300253032643A253032643A25303246
:091140006420746D703A2564000E
:00000001FF
