:10000000020003787FE4F6D8FD75811902004A02E8
:1000100000E4E493A3F8E493A34003F68001F2081C
:10002000DFF48029E493A3F85407240CC8C333C435
:10003000540F4420C8834004F456800146F6DFE4A0
:10004000800B01020408102040809000F2E47E0141
:100050009360BCA3FF543F30E509541FFEE493A313
:1000600060010ECF54C025E060A840B8E493A3FA25
:10007000E493A3F8E493A3C8C582C8CAC583CAF0B1
:10008000A3C8C582C8CAC583CADFE9DEE780BE7ED1
:10009000087808E4F608DEFC7E07EFD39400401DE4
:1000A000EF75F00A84741025F0F8E6FDAC061E74B6
:1000B000082CF8A605EF75F00A84FF80DD22E4FC29
:1000C000AF0474082CF8E6FD1200D31200FF0CBC3C
:1000D00008EE22E4F580EF33333354F85390C742EF
:1000E000908D8022C2B6C2B47F4612008F1200BE2D
:1000F00080FB0A103F065B4F666D7D077F6F000037
:090100007F027EC7DEFEDFFC2257
:00000001FF
