:07000000020137012000009E
:10000B000201C3E709F608DFFA8046E709F208DFC9
:10001B00FA803E88828C83E709F0A3DFFA8032E313
:10002B0009F608DFFA8078E309F208DFFA807088B6
:10003B00828C83E309F0A3DFFA806489828A83E0F0
:10004B00A3F608DFFA805889828A83E0A3F208DFDF
:10005B00FA804C80D280FA80C680D4806980F2808E
:10006B0033801080A680EA809A80A880DA80E280B4
:10007B00CA803389828A83ECFAE493A3C8C582C809
:10008B00CCC583CCF0A3C8C582C8CCC583CCDFE973
:10009B00DEE7800D89828A83E493A3F608DFF9EC0F
:1000AB00FAA9F0EDFB2289828A83ECFAE0A3C8C59A
:1000BB0082C8CCC583CCF0A3C8C582C8CCC583CCC1
:1000CB00DFEADEE880DB89828A83E493A3F208DF30
:1000DB00F980CC88F0EF60010E4E60C388F0ED2400
:1000EB0002B4040050B9F582EB2402B4040050AF03
:1000FB00232345822390005E73BB010CE58229F517
:10010B0082E5833AF583E0225006E92582F8E62260
:10011B00BBFE06E92582F8E222E58229F582E5831A
:10012B003AF583E493228A838982E473787FE4F639
:10013B00D8FD75812802017E0202E8E493A3F8E45E
:10014B0093A34003F68001F208DFF48029E493A324
:10015B00F85407240CC8C333C4540F4420C883403D
:10016B0004F456800146F6DFE4800B01020408100C
:10017B00204080900003E47E019360BCA3FF543FBA
:10018B0030E509541FFEE493A360010ECF54C02544
:10019B00E060A840B8E493A3FAE493A3F8E493A334
:1001AB00C8C582C8CAC583CAF0A3C8C582C8CAC598
:1001BB0083CADFE9DEE780BEC0E0C0F0C083C08247
:1001CB00C0D075D000C000C001C002C003C004C0C5
:1001DB0005C006C007758A66758CFC751400E5149E
:1001EB0075F003A42408F8860308E6FA08E64A4BE0
:1001FB006012E51475F003A42408F808E6FA08E683
:10020B00F91201310514E514C3940440D1D007D081
:10021B0006D005D004D003D002D001D000D0D0D06E
:10022B0082D083D0F0D0E0328B1D8A1E891FE4FF71
:10023B00EF75F003A42408F8860308E6FA08E6F93C
:10024B00E51D851E83851F826B7008E9658270032F
:10025B00EA65837002D3220FBF04D5E4FFEF75F07C
:10026B0003A42408F8860308E6FA08E64A4B70163E
:10027B00AA1EA91FEF75F003A42408F8A61D08A653
:10028B000208A601D3220FBF04D3C322D2AFD2A937
:10029B005389F0438901758A66758CFCD28CE4FF17
:1002AB00EF75F003A42408F87600087600087600B2
:1002BB000FBF04EC227580FFE5207004D290800202
:1002CB00C290C292D292C291D29174212520F8E6AB
:1002DB00F5800520E520B40803E4F5202278157C91
:1002EB00007D007BFF7A0379457E007F081200DEDC
:1002FB0012029712032E7B007A00791512030C80E1
:10030B00FE8B1D8A1E891FE4FFAB1DAA1EA91F8F22
:10031B0082758300120104FE74212FF8A6060FBF0D
:10032B0008E722C2B5C2B47F08782174FFF608DF54
:10033B00FC7BFF7A0279C0020233FEFDFBF7EFDF95
:02034B00BF7F72
:00000001FF
