:100000000200261200EEFF600C120016740129F99E
:0E001000E43AFA80EE222000FDD2008F992201
:1000230002013B787FE4F6D8FD75812002006D0262
:1000330000B2E493A3F8E493A34003F68001F2082B
:10004300DFF48029E493A3F85407240CC8C333C412
:10005300540F4420C8834004F456800146F6DFE47D
:10006300800B0102040810204080900159E47E01B6
:100073009360BCA3FF543F30E509541FFEE493A3F0
:1000830060010ECF54C025E060A840B8E493A3FA02
:10009300E493A3F8E493A3C8C582C8CAC583CAF08E
:1000A300A3C8C582C8CAC583CADFE9DEE780BE121A
:1000B30001197B007A00790912014B50F5E509B467
:1000C300410BE4F5807BFF7A01795F800EE509B48B
:1000D300420E7580FF7BFF7A01796C12000380D298
:1000E3007BFF7A01797A12000380C7BB01068982FC
:1000F3008A83E0225002E722BBFE02E32289828A3E
:1001030083E49322BB010689828A83F0225002F79B
:1001130022BBFE01F322C29FD29E53877F53890FD6
:10012300438920758BFD758DFDD28ED29CC29DD2E5
:10013300AFD2ACC298C29922309805859908C2986B
:10014300309904C200C29932E5086008120107E43D
:10015300F508D322C322C100010800004F4B3A4CDB
:100163004544206973206F6E004F4B3A4C45442041
:100173006973206F6666004572726F7220636F6DDC
:050183006D616E6400D7
:00000001FF
