:0A00000002000EC296D297D296229B
:10000B0002009A787FE4F6D8FD75816202005502F2
:10001B0002B0E493A3F8E493A34003F68001F20843
:10002B00DFF48029E493A3F85407240CC8C333C42A
:10003B00540F4420C8834004F456800146F6DFE495
:10004B00800B010204081020408090036AE47E01BB
:10005B009360BCA3FF543F30E509541FFEE493A308
:10006B0060010ECF54C025E060A840B8E493A3FA1A
:10007B00E493A3F8E493A3C8C582C8CAC583CAF0A6
:10008B00A3C8C582C8CAC583CADFE9DEE780BEC084
:10009B00E0C0F0C083C082C0D075D000C000C001EA
:1000AB00C002C003C004C005C006C007758A6675D0
:1000BB008CFC750800E50875F003A42457F886033B
:1000CB0008E6FA08E64A4B6012E50875F003A4242B
:1000DB0057F808E6FA08E6F91202160508E508C310
:1000EB00940440D1D007D006D005D004D003D00261
:1000FB00D001D000D0D0D082D083D0F0D0E0328BE2
:10010B000A8A0B890CE4FFEF75F003A42457F886D9
:10011B000308E6FA08E6F9E50A850B83850C826B82
:10012B007008E965827003EA65837002D3220FBF02
:10013B0004D5E4FFEF75F003A42457F8860308E613
:10014B00FA08E64A4B7016AA0BA90CEF75F003A43C
:10015B002457F8A60A08A60208A601D3220FBF044B
:10016B00D3C3228F0A8B0B8A0C890D1203ED7FA050
:10017B001202F01203E0AF0A1202F01203E01203B4
:10018B00ED7FA11202F01203E0E4F50FE50FC3952A
:10019B000E502612038BAB0BAA0CA90D850F827583
:1001AB008300EF1201F4E50E14B50F03D38001C3E6
:1001BB0092001203F6050F80D3020003BB010CE57E
:1001CB008229F582E5833AF583E0225006E9258200
:1001DB00F8E622BBFE06E92582F8E222E58229F544
:1001EB0082E5833AF583E49322F8BB010DE582297E
:1001FB00F582E5833AF583E8F0225006E92582C8BB
:10020B00F622BBFE05E92582C8F2228A838982E4A5
:10021B00738F0A8B0B8A0C890DE50A540FFFC3747D
:10022B00109FF50FE50ED3950F4024850F14AF0AE1
:10023B00120269E50A250FFFAB0BE50F7C00250DBC
:10024B00F9EC350CFAC3E50E950FF50E02021CAB5B
:10025B000BAA0CA90D850E14AF0A120269228F107E
:10026B008B118A1289131203ED7FA01202F0120375
:10027B00E0AF101202F01203E0E4F515E515C3959B
:10028B0014501AAB11AA12A913851582758300128B
:10029B0001C7FF1202F01203E0051580DF12000305
:1002AB007F050203BA1203191203A37B007A0079AC
:1002BB0021750E1BE4FF12021C7B007A00793C7542
:1002CB000E1BE4FF12016EE4F509743C2509F8E6F8
:1002DB00F4FF1203CD7FC81203BA0509E509C394D5
:1002EB001B40E780E2AD07E4FC7E007480A80408A5
:1002FB008006CEA2E713CE13D8F8FFEDFBEF5BD34E
:10030B007001C39296D297C2970CBC08DC22D2AF75
:10031B00D2A95389F0438901758A66758CFCD28CFE
:10032B00E4FFEF75F003A42457F876000876000875
:10033B0076000FBF04EC227580FFE5167004D29097
:10034B008002C290C292D292C291D291741725169A
:10035B00F8E6F5800516E516B40803E4F516220158
:10036B0016001B21F80AECAFEC8AF80010F997F194
:10037B0088AAFFAA8800140AF59292F50A140000C5
:10038B00E4FFD296FED297EF25E0FFA296E4334F1F
:10039B00FFC2970EBE08EE22C2B5C2B47F08781713
:1003AB0074FFF608DFFC7BFF7A03794202010AEF48
:1003BB00D39400400C007E027DC7DDFEDEFC1F8067
:1003CB00EE227E0774162EF8E6FD74172EF8A6059E
:1003DB00DEF28F1722D296D297A2969200C297A2E4
:1003EB000022D297D296C296C29722A2009296D2A0
:0403FB0097C29722EC
:00000001FF
