:100000000201D8E709F608DFFA8046E709F208DFBF
:10001000FA803E88828C83E709F0A3DFFA8032E31E
:1000200009F608DFFA8078E309F208DFFA807088C1
:10003000828C83E309F0A3DFFA806489828A83E0FB
:10004000A3F608DFFA805889828A83E0A3F208DFEA
:10005000FA804C80D280FA80C680D4806980F28099
:1000600033801080A680EA809A80A880DA80E280BF
:10007000CA803389828A83ECFAE493A3C8C582C814
:10008000CCC583CCF0A3C8C582C8CCC583CCDFE97E
:10009000DEE7800D89828A83E493A3F608DFF9EC1A
:1000A000FAA9F0EDFB2289828A83ECFAE0A3C8C5A5
:1000B00082C8CCC583CCF0A3C8C582C8CCC583CCCC
:1000C000DFEADEE880DB89828A83E493A3F208DF3B
:1000D000F980CC88F0EF60010E4E60C388F0ED240B
:1000E00002B4040050B9F582EB2402B4040050AF0E
:1000F00023234582239000537375F008758200EF27
:100100002FFFEE33FECD33CDCC33CCC58233C58249
:100110009BED9AEC99E58298400CF582EE9BFEED02
:100120009AFDEC99FC0FD5F0D6E4CEFBE4CDFAE4D1
:10013000CCF9A88222B800C1B90059BA002DEC8BC5
:10014000F084CFCECDFCE5F0CBF97818EF2FFFEEA1
:1001500033FEED33FDEC33FCEB33FB10D70399405A
:1001600004EB99FB0FD8E5E4F9FA227818EF2FFF9A
:10017000EE33FEED33FDEC33FCC933C910D7059BDC
:10018000E99A4007EC9BFCE99AF90FD8E0E4C9FA38
:10019000E4CCFB2275F010EF2FFFEE33FEED33FDC4
:1001A000CC33CCC833C810D7079BEC9AE899400AE7
:1001B000ED9BFDEC9AFCE899F80FD5F0DAE4CDFB65
:1001C000E4CCFAE4C8F922EB9FF5F0EA9E42F0E9AC
:1001D0009D42F0E89C45F022787FE4F6D8FD7581D9
:1001E0002302021F020368E493A3F8E493A34003ED
:1001F000F68001F208DFF48029E493A3F854072481
:100200000CC8C333C4540F4420C8834004F4568040
:100210000146F6DFE4800B010204081020408090C4
:1002200003B9E47E019360BCA3FF543F30E5095459
:100230001FFEE493A360010ECF54C025E060A840E8
:10024000B8E493A3FAE493A3F8E493A3C8C582C8DF
:10025000CAC583CAF0A3C8C582C8CAC583CADFE9B4
:10026000DEE780BE781C7C007D007BFF7A0379C6C8
:100270007E007F041200D378207C007D007BFF7A13
:100280000379CA7E007F041200D3E4F51A741C259A
:100290001AF8E6F5A0E4F51B7420251BF8E655A036
:1002A00070277F0A1203957420251BF8E655A0706D
:1002B000187420251BF8E655A060F6E51B2405FF01
:1002C000E51A25E025E02FFF22051BE51BC394045A
:1002D00040C6051AE51AC3940440B27F00228F1D60
:1002E0008E1C8D1B8C1AE4F51E7412251EF8E4F684
:1002F000051EE51EB408F2751E07E4FFFEFDFCAB0B
:100300001DAA1CA91BA81AD31201C7403CE47B0AF2
:10031000FAF9F8AF1DAE1CAD1BAC1A12013574080A
:100320002BF8E6FFAE1E151E74122EF8A607AF1DA1
:10033000AE1CAD1BAC1AE47B0AFAF9F81201358F3A
:100340001D8E1C8D1B8C1A80B122E4F51A741225A7
:100350001AF8E6FDAF1A1203A87F01120395051AD9
:10036000E51AC3940840E622C2B4C2B6120264EF92
:10037000600AE4FCFDFE1202DE12038112034A80D1
:10038000EB751A64B2EE7F01120395151AE51AD3C4
:10039000940050F022EFD39400400C007E027DC701
:1003A000DDFEDEFC1F80EE22E4F580EF33333354B4
:1003B000F85390C742908D80220A083F065B4F6633
:0E03C0006D7D077F6F00FEFDFBF71020408073
:00000001FF
